:020000040800F2
:10000000005000208D500008712A0008732A000853
:10001000752A0008772A0008792A000800000000E5
:100020000000000000000000000000007B2A000823
:100030007D2A0008000000007F2A0008812A0008AD
:10004000D5500008D5500008D5500008D5500008FC
:10005000D5500008D5500008D5500008D5500008EC
:10006000D5500008D5500008D5500008D5500008DC
:10007000D5500008D5500008D5500008D5500008CC
:10008000D5500008D5500008D5500008D5500008BC
:10009000D5500008D5500008D5500008D5500008AC
:1000A000D5500008D5500008D5500008D55000089C
:1000B000D5500008D5500008D5500008D55000088C
:1000C000D5500008D5500008D5500008D55000087C
:1000D000D5500008D5500008D5500008D55000086C
:1000E000D5500008D5500008D55000080000000089
:1000F0000000000000000000000000000000000000
:0C01000000000000000000005FF808F1A3
:10011000034613F8012B002AFBD1181A0138704747
:1001200081F0004102E000BF83F0004330B54FEAA8
:1001300041044FEA430594EA050F08BF90EA020F15
:100140001FBF54EA000C55EA020C7FEA645C7FEAA8
:10015000655C00F0E2804FEA5454D4EB5555B8BFCB
:100160006D420CDD2C4480EA020281EA030382EA3C
:10017000000083EA010180EA020281EA0303362DCE
:1001800088BF30BD11F0004F4FEA01314FF4801CA1
:100190004CEA113102D0404261EB410113F0004FB3
:1001A0004FEA03334CEA133302D0524263EB43036A
:1001B00094EA050F00F0A780A4F10104D5F1200E08
:1001C0000DDB02FA0EFC22FA05F2801841F1000163
:1001D00003FA0EF2801843FA05F359410EE0A5F137
:1001E00020050EF1200E012A03FA0EFC28BF4CF068
:1001F000020C43FA05F3C01851EBE37101F000451E
:1002000007D54FF0000EDCF1000C7EEB00006EEB2A
:100210000101B1F5801F1BD3B1F5001F0CD34908B4
:100220005FEA30004FEA3C0C04F101044FEA44520B
:1002300012F5800F80F09A80BCF1004F08BF5FEA92
:10024000500C50F1000041EB045141EA050130BD72
:100250005FEA4C0C404141EB0101013C28BFB1F584
:10026000801FE9D291F0000F04BF01460020B1FACF
:1002700081F308BF2033A3F10B03B3F120020CDAA2
:100280000C3208DD02F1140CC2F10C0201FA0CF080
:1002900021FA02F10CE002F11402D8BFC2F1200CE5
:1002A00001FA02F120FA0CFCDCBF41EA0C0190409B
:1002B000E41AA2BF01EB0451294330BD6FEA0404E4
:1002C0001F3C1CDA0C340EDC04F11404C4F12002CF
:1002D00020FA04F001FA02F340EA030021FA04F3E1
:1002E00045EA030130BDC4F10C04C4F1200220FA38
:1002F00002F001FA04F340EA0300294630BD21FA76
:1003000004F0294630BD94F0000F83F4801306BF3B
:1003100081F480110134013D4EE77FEA645C18BF2F
:100320007FEA655C29D094EA050F08BF90EA020FC6
:1003300005D054EA000C04BF1946104630BD91EABE
:10034000030F1EBF0021002030BD5FEA545C05D1C1
:100350004000494128BF41F0004130BD14F5800400
:100360003CBF01F5801130BD01F0004545F0FE4174
:1003700041F470014FF0000030BD7FEA645C1ABFA9
:10038000194610467FEA655C1CBF0B46024650EAE0
:10039000013406BF52EA033591EA030F41F400210C
:1003A00030BD00BF90F0000F04BF0021704730B592
:1003B0004FF4806404F132044FF000054FF0000167
:1003C00050E700BF90F0000F04BF0021704730B528
:1003D0004FF4806404F1320410F0004548BF4042FD
:1003E0004FF000013EE700BF42004FEAE2014FEA52
:1003F00031014FEA02701FBF12F07F4393F07F4F2D
:1004000081F06051704732F07F4208BF704793F02F
:100410007F4F04BF41F40021704730B54FF4607442
:1004200001F0004521F000411CE700BF50EA010245
:1004300008BF704730B54FF000050AE050EA0102EE
:1004400008BF704730B511F0004502D5404261EB5E
:1004500041014FF4806404F132045FEA915C3FF49F
:10046000D8AE4FF003025FEADC0C18BF03325FEA3C
:10047000DC0C18BF033202EBDC02C2F1200300FAED
:1004800003FC20FA02F001FA03FE40EA0E0021FA12
:1004900002F11444BDE600BF70B54FF0FF0C4CF400
:1004A000E06C1CEA11541DBF1CEA135594EA0C0FB2
:1004B00095EA0C0F00F0DEF82C4481EA030621EAED
:1004C0004C5123EA4C5350EA013518BF52EA033528
:1004D00041F4801143F4801338D0A0FB02CE4FF0DA
:1004E0000005E1FB02E506F00042E0FB03E54FF00A
:1004F0000006E1FB03569CF0000F18BF4EF0010E02
:10050000A4F1FF04B6F5007F64F5407404D25FEAFD
:100510004E0E6D4146EB060642EAC62141EA5551B0
:100520004FEAC52040EA5E504FEACE2EB4F1FD0CF2
:1005300088BFBCF5E06F1ED8BEF1004F08BF5FEA70
:10054000500E50F1000041EB045170BD06F0004622
:1005500046EA010140EA020081EA0301B4EB5C04CF
:10056000C2BFD4EB0C0541EA045170BD41F48011C7
:100570004FF0000E013C00F3AB8014F1360FDEBFEC
:10058000002001F0004170BDC4F10004203C35DAC8
:100590000C341BDC04F11404C4F1200500FA05F34B
:1005A00020FA04F001FA05F240EA020001F00042EC
:1005B00021F0004110EBD37021FA04F642EB060162
:1005C0005EEA430E08BF20EAD37070BDC4F10C048C
:1005D000C4F1200500FA04F320FA05F001FA04F250
:1005E00040EA020001F0004110EBD37041F100013C
:1005F0005EEA430E08BF20EAD37070BDC4F1200547
:1006000000FA05F24EEA020E20FA04F301FA05F2AE
:1006100043EA020321FA04F001F0004121FA04F256
:1006200020EA020000EBD3705EEA430E08BF20EA26
:10063000D37070BD94F0000F0FD101F00046400060
:1006400041EB010111F4801F08BF013CF7D041EAE2
:10065000060195F0000F18BF704703F000465200E6
:1006600043EB030313F4801F08BF013DF7D043EAB7
:100670000603704794EA0C0F0CEA135518BF95EA6D
:100680000C0F0CD050EA410618BF52EA4306D1D1F4
:1006900081EA030101F000414FF0000070BD50EA13
:1006A000410606BF1046194652EA430619D094EA9D
:1006B0000C0F02D150EA013613D195EA0C0F05D187
:1006C00052EA03361CBF104619460AD181EA0301DB
:1006D00001F0004141F0FE4141F470014FF0000093
:1006E00070BD41F0FE4141F4780170BD70B54FF02E
:1006F000FF0C4CF4E06C1CEA11541DBF1CEA1355AE
:1007000094EA0C0F95EA0C0F00F0A7F8A4EB05048F
:1007100081EA030E52EA03354FEA013100F0888086
:100720004FEA03334FF0805545EA131343EA12634F
:100730004FEA022245EA111545EA10654FEA002604
:100740000EF000419D4208BF964244F1FD0404F5BD
:10075000407402D25B084FEA3202B61A65EB030519
:100760005B084FEA32024FF480104FF4002CB6EBD6
:10077000020E75EB030E22BFB61A754640EA0C0056
:100780005B084FEA3202B6EB020E75EB030E22BF96
:10079000B61A754640EA5C005B084FEA3202B6EBD7
:1007A000020E75EB030E22BFB61A754640EA9C0096
:1007B0005B084FEA3202B6EB020E75EB030E22BF66
:1007C000B61A754640EADC0055EA060E18D04FEA24
:1007D000051545EA16754FEA06164FEAC30343EAC4
:1007E00052734FEAC2025FEA1C1CC0D111F4801F91
:1007F0000BD141EA00014FF000004FF0004CB6E78A
:1008000011F4801F04BF01430020B4F1FD0C88BF28
:10081000BCF5E06F3FF6AFAEB5EB030C04BFB6EB33
:10082000020C5FEA500C50F1000041EB045170BD26
:100830000EF0004E4EEA113114EB5C04C2BFD4EB53
:100840000C0541EA045170BD41F480114FF0000ED7
:10085000013C90E645EA060E8DE60CEA135594EA53
:100860000C0F08BF95EA0C0F3FF43BAF94EA0C0F56
:100870000AD150EA01347FF434AF95EA0C0F7FF4CB
:1008800025AF104619462CE795EA0C0F06D152EA1F
:1008900003353FF4FDAE1046194622E750EA410603
:1008A00018BF52EA43067FF4C5AE50EA41047FF414
:1008B0000DAF52EA43057FF4EBAE12E74FF0FF3C79
:1008C00006E000BF4FF0010C02E000BF4FF0010C4A
:1008D0004DF804CD4FEA410C7FEA6C5C4FEA430CC3
:1008E00018BF7FEA6C5C1BD001B050EA410C0CBF12
:1008F00052EA430C91EA030F02BF90EA020F002074
:10090000704710F1000F91EA030F58BF994208BFDA
:1009100090422CBFD8176FEAE37040F00100704797
:100920004FEA410C7FEA6C5C02D150EA013C07D1EE
:100930004FEA430C7FEA6C5CD6D152EA033CD3D039
:100940005DF8040B704700BF8446104662468C4633
:100950001946634600E000BF01B5FFF7B7FF002866
:1009600048BF10F1000F01BD4DF808EDFFF7F4FF8F
:100970000CBF012000205DF808FB00BF4DF808ED1A
:10098000FFF7EAFF34BF012000205DF808FB00BF3D
:100990004DF808EDFFF7E0FF94BF012000205DF85F
:1009A00008FB00BF4DF808EDFFF7CEFF94BF012014
:1009B00000205DF808FB00BF4DF808EDFFF7C4FF0D
:1009C00034BF012000205DF808FB00BF4FEA410C56
:1009D0007FEA6C5C02D150EA013C0AD14FEA430C39
:1009E0007FEA6C5C02D152EA033C02D14FF0000076
:1009F00070474FF0010070474FEA410212F50012B4
:100A000015D211D56FF47873B3EB625212D94FEA55
:100A1000C12343F0004343EA505311F0004F23FA3F
:100A200002F018BF404270474FF00000704750EA94
:100A3000013005D111F0004008BF6FF00040704751
:100A40004FF00000704700BF0348044B834202D0C0
:100A5000034B03B118477047100300201003002018
:100A6000000000000548064B1B1AD90F01EBA3013B
:100A7000491002D0034B03B1184770471003002000
:100A8000100300200000000010B5064C237843B985
:100A9000FFF7DAFF044B13B10448AFF300800123E2
:100AA000237010BD1003002000000000807E0008AD
:100AB00008B5054B1BB105490548AFF30080BDE8FB
:100AC0000840FFF7CFBF00BF000000001403002064
:100AD000807E00082DE9F04788B004AD002404941E
:100AE000059406940794394B9A6942F010029A6172
:100AF0009A6902F010020092009A9A6942F020026C
:100B00009A619A6902F020020192019A9A6942F070
:100B100004029A619A6902F004020292029A9A69A6
:100B200042F008029A619B6903F008030393039B58
:100B3000DFF89CA022464FF46041504603F07BFF53
:100B4000244F2246F821384603F075FFDFF88880ED
:100B500022464CF2E001404603F06DFF4FF4604343
:100B600004930126059606944FF00209CDF81C90D7
:100B70002946504603F04EFEF8230493059606944A
:100B8000CDF81C902946384603F044FE43F6134343
:100B90000493059406962946404603F03BFE4CF22A
:100BA000E003049305960694CDF81C902946404630
:100BB00003F030FE4FF4E053049305940696294663
:100BC000384603F027FE08B0BDE8F0870010024069
:100BD0000010014000080140000C014000221346B3
:100BE00007E010F802C0634403EB832383EA931306
:100BF00001328A42F5D303EBC30383EAD32000EB2F
:100C0000C030704770B5ADF5027D4FF0FF33032261
:100C1000A0211E4802F0BCFF0028F6D14FF0FF33A0
:100C200002934FF4FC75019504AC009410234FF42B
:100C30008062A021154802F021FEBDF8106000235B
:100C4000ADF8103029462046FFF7C8FF80B2B04209
:100C500007D12A4621460E4804F0D6FF0DF5027D45
:100C600070BD0021084602F0ECF80A4802F042F993
:100C70000021012002F0E5F8074802F03BF94FF4AB
:100C8000FA6003F073F902F0D7F8E7E704080020F0
:100C900080050020987E0008A47E00082DE9F04120
:100CA00084B0194F00233B804FF4FC713846FFF7A6
:100CB00095FF38804FF480644FF4FC751BE02026CC
:100CC0004FF0FF330322A021104802F061FF0028FB
:100CD000F6D11FFA86F84FF0FF330293CDF8048067
:100CE000009710232246A021084802F00BFDAD1BFF
:100CF00037444444A4B21DB1202DE0D82E46DFE78E
:100D000004B0BDE8F08100BF800500200408002089
:100D100070B588B04FF0FF330322A0211D4802F0C8
:100D200037FF0028F6D14FF0FF33029310240194CF
:100D30000DEB0405009523460022A021154802F082
:100D40009DFDBDF810600023ADF810302146284607
:100D5000FFF744FF80B2B04207D10F4C08AB13E954
:100D60000F0084E80F0008B070BD0021084602F0B3
:100D700068F80A4802F0BEF80021012002F061F88C
:100D8000074802F0B7F84FF4FA6003F0EFF802F00A
:100D900053F8E8E70408002028010020B07E00088E
:100DA000A47E000810B584B00F4C002323801021CE
:100DB0002046FFF713FF20804FF0FF330322A021CE
:100DC0000A4802F0E5FE0028F6D14FF0FF33029307
:100DD00010230193044A00920022A021034802F04C
:100DE00091FC04B010BD00BF2801002004080020C1
:100DF0000F4A536818445060092807DC13460A223A
:100E00005A6001229A7042229A607047084B002271
:100E10009A701E2801DD1E225A6005494A68322355
:100E200002FB03334EF6602292FBF3F38B607047B4
:100E30002801002030B589B004460846154601AAAD
:100E400005A901F021FE094B1B783BB101AB2A46F5
:100E50000021204601F057FF09B030BD05A9002050
:100E600001F034FF014B01221A70EFE774030020F8
:100E700008B502464FF40041014803F0DCFD08BD0F
:100E8000000C014008B502468021024803F0D3FD62
:100E900008BD00BF0008014008B51021034803F059
:100EA000C3FDB0FA80F0400908BD00BF000C01404E
:100EB00070B50C46154622B94C4B1B78002B40F000
:100EC00081804B4B1E7816B100EB80004000494BEF
:100ED0001B6803EBC302484901EB82018A684FF0AB
:100EE000640C0CFB00228A6086B178B1434981FB17
:100EF0000201D217C2EBA1124FF47A7101FB02F288
:100F000003EBC3003C4901EB80018A603A4A03EBE2
:100F1000C30102EB8100806852F82120904216DA6A
:100F20000B46354901EB83039A60FFF7B5FF38B3F1
:100F3000304B1B68012B18D903EBC3032E4A02EB7D
:100F400083039A682E4B13442E4A136024E003EB6C
:100F5000C301294A02EB810252689042E5DD0B464B
:100F6000254901EB83039A60DFE703EBC303224AC1
:100F700002EB83039A68244B1344224A13600BE06C
:100F80001C4B1B6803EBC3031B4A02EB83039A68E9
:100F90001E4B13441B4A1360E4B11D4B1B78022BFC
:100FA00011D02DB9174B1A681A4B1B689A4205D0FD
:100FB0000122144B19680220FFF73CFF114B1A68FD
:100FC000144B1A6070BD0F4A1368134909680B442B
:100FD0001360E6E70E4B1B78012BE2D1094A136838
:100FE0000D4909680B441360DBE700BF820700204E
:100FF000810700202401002004000020D34D62104E
:10100000DE56890038010020E04A89009C4D8900A5
:1010100080070020700300207C07002038B5FFF710
:101020003BFF054640B1184B1B6853B3012B01D061
:10103000012402E0002400E00024144B1B78A342AA
:1010400002D1134B1B7823B12046FFF71BFF0F4B38
:101050001C70104B1B78AB4202D10D4B1B7863B157
:10106000012200210846FFF723FF2A464FF4804162
:10107000094803F0E0FC074B1D70054B00221A7075
:1010800038BD0024D9E700BF240100206D030020F3
:10109000000000206C030020000C014030B587B038
:1010A0001B4B1B6803EBC3039A001A4B134498684D
:1010B000194B83FB003CC317C3EBAC41174A02FB3F
:1010C0001101174C84FB0052C3EBA2124FF47A7546
:1010D00005FB120202AD134880FB02E0D217C2EBFF
:1010E0006012019284FB0124C917C1EBA411009185
:1010F000C3EBAC430C4A1021284604F049FC002104
:10110000084601F09EFE284601F0F4FE07B030BD0F
:10111000240100200400002083DE1B4340420F0016
:10112000D34D62101F85EB51BC7E000808B54FF40B
:101130008051034803F078FCB0FA80F0400908BD04
:10114000000C014008B54FF40051034803F06CFC5B
:10115000B0FA80F0400908BD000C014008B50A4B08
:101160001B7833B901224FF40051084803F063FCA7
:1011700008BD012001F060FD01224FF480410348C9
:1011800003F059FCEEE700BF7E050020001001408F
:1011900010B50A4B1B786BB9094C00224FF4804103
:1011A000204603F048FC00224FF40051204603F093
:1011B00042FC10BD002001F03FFDEDE77E05002060
:1011C0000010014038B50446042814BF0022012253
:1011D0004FF40041114803F02EFC114D032C14BFB5
:1011E000002201220821284603F025FC022C14BF0E
:1011F000002201221021284603F01DFC012C14BFFF
:10120000002201222021284603F015FCB4FA84F2C2
:1012100052094021284603F00EFC38BD0010014061
:101220000008014010B5013806287CD8DFE800F03E
:101230006A59483726150400434C002220212046D5
:1012400003F0F9FB00224021204603F0F4FB0022CA
:101250008021204603F0EFFB10BD3B4C01222021F2
:10126000204603F0E8FB00224021204603F0E3FB88
:1012700000228021204603F0DEFBEDE7324C002205
:101280002021204603F0D7FB01224021204603F015
:10129000D2FB00228021204603F0CDFBDCE72A4C64
:1012A00001222021204603F0C6FB012240212046D6
:1012B00003F0C1FB00228021204603F0BCFBCBE7FA
:1012C000214C00222021204603F0B5FB00224021C2
:1012D000204603F0B0FB01228021204603F0ABFB47
:1012E000BAE7194C01222021204603F0A4FB00227A
:1012F0004021204603F09FFB01228021204603F07D
:101300009AFBA9E7104C00222021204603F093FB12
:1013100001224021204603F08EFB0122802120463D
:1013200003F089FB98E7084C01222021204603F0B6
:1013300082FB01224021204603F07DFB0122802117
:10134000204603F078FB87E7000C014038B5164AC9
:1013500013680344136002E00833134A1360124B0E
:101360001B68002BF8DB03F007030F4D2B600F4CBD
:1013700003EBC30304EB830393F82100FFF752FF51
:101380002B6803EBC30304EB830494F82000FFF7FE
:1013900019FF002211461046FFF78AFD042001F0D4
:1013A0004BFCFFF77BFE38BD240100200400002029
:1013B00008B51E4B1B783BBB1D4B1B782BBB1D4B35
:1013C0001B6803EBC30291001B4A0A4491681B4A45
:1013D0001278022A25D003EBC3039A00164B13445C
:1013E00093F822200020FFF725FDFFF7D1FE012012
:1013F000FFF73EFD0021012001F023FD104801F020
:1014000079FD0A4B01221A7008BD01221146002005
:10141000FFF74EFD01224FF480410A4803F00BFB19
:10142000E5E7094A12681144D5E700BF7E050020B0
:101430007D050020240100200400002080070020FA
:10144000D07E0008001001407C07002038B514460B
:1014500003F0EAFA10B10125284638BD054602F02E
:101460007FFD2368C31AC82B01D92060F4E7022549
:10147000F2E7000008B5034A4FF480610248FFF725
:10148000E5FF08BD600300200008014008B5034ADD
:101490004FF400610248FFF7D9FF08BD5C0300204C
:1014A0000008014008B5034A4FF480510248FFF795
:1014B000CDFF08BD580300200008014008B5034ACD
:1014C00001210348FFF7C2FF08BD00BF54030020FD
:1014D000000C014008B5034A02210348FFF7B6FF9C
:1014E00008BD00BF50030020000C014008B5034AAE
:1014F0004FF480610248FFF7A9FF08BD4C030020AC
:10150000000C014008B5034A4FF400610248FFF7A0
:101510009DFF08BD48030020000C0140014B002244
:101520001A7070477C05002008B548B1094B1B783C
:1015300003B108BDFFF712FE064B01221A70F8E74F
:10154000044B1B78002BF4D0FFF722FE014B002246
:101550001A70EEE77C050020014B00221A607047EC
:1015600078050020014B1868704700BF78050020FF
:10157000024B1868C0F5FA70704700BF780500206C
:1015800010B50446FFF7F4FF78B1202C0ED02F2CB5
:101590000CD0202C0FD02F2C15D0202C20D0144A6A
:1015A00013681449CC540133136010BD104B1B68F1
:1015B000002BEED1F9E70E4B1B68013B0D4AD35CC3
:1015C000202BE8D1F1E70A4B1B68013B094AD25CAA
:1015D0002F2AEAD0202AE0D1064A2F21D154E4E76D
:1015E000034B1B68013B034AD35C2F2BD7D1DCE7AD
:1015F000780500208403002070B505460E4602F0F1
:10160000AFFC0446414B1B781BB1414A1268824231
:1016100046DD43B93E4A1168611A3E4A926802EBC0
:101620008202914242DC3BB9394B1B68E31A394ACA
:101630009268B3EB420F3DDC374B1B7893B91DB179
:10164000364B1B78022B39D01EB1344B1B78012B43
:1016500038D0334B1B68A34204DA002D36D02E4B12
:1016600001221A702F4B1B68A34218DA2A4B1B78F1
:10167000ABB1012B30D0022B3BD0274B1978274A36
:10168000117000221A70234B9B68214A1268134480
:10169000244A13601D4B01221A70FFF75FFD70BDD5
:1016A000FFF776FD194B00221A70C5E72F20FFF7D0
:1016B00067FFC1E72020FFF763FFBDE7164B01225C
:1016C0001A70CFE7144B02221A70CBE7002EC9D054
:1016D000114B02221A70C5E72E20FFF751FF0D4B68
:1016E0009B6819190A4A116004EB43030C4A136002
:1016F000C3E72D20FFF744FF064B9B6803EB430332
:101700002344034A1360064A1360B6E744030020EB
:1017100040030020280100207807002079070020DE
:101720003C030020380300200068406A90FBF3F07F
:1017300002FB00F3013BC3F34E035A42C3F5FF43E0
:101740007F33B3F5804F00DD531E0868984207D001
:10175000C01A0B6000F10903122B02D90020704758
:101760000020704710B584B0144B9B787BB10021EA
:10177000084601F066FB124801F0BCFB0021012085
:1017800001F05FFB0F4801F0B5FB04B010BD0B4B3F
:101790005B680D4A1021684604F0FAF800210846FB
:1017A00001F04FFB684601F0A5FB0021012001F08C
:1017B00048FB064801F09EFBE7E700BF2801002038
:1017C000DC7E0008E87E0008F47E0008007F000848
:1017D00008B50021084601F034FB054801F08AFBFA
:1017E0000021012001F02DFB024801F083FB08BD20
:1017F0000C7F0008187F000808B50021084601F09A
:1018000020FB054801F076FB0021012001F019FBC7
:10181000024801F06FFB08BD247F0008187F000814
:1018200010B50446FFF73EFE08B9012010BDFFF7D2
:101830005DFE08B90120F9E7FFF764FE08B9012051
:10184000F4E7FFF747FE08B90120EFE7FFF71EFEB8
:1018500008B90120EAE7FFF70DFE08B90120E5E726
:10186000FFF72CFE08B90120E0E7FFF75FFC08B1A5
:101870000120DBE7FFF766FC60B90CB10020D5E77B
:10188000FFF70AFB044B1B78984201D00120CDE7FB
:101890000020CBE70120C9E77D050020044B002292
:1018A0001A60044B00200021C3E90001704700BF0B
:1018B00080030020780300202DE9F04182B0FFF77B
:1018C0004BFEFFF755FE074603463B4A0821684694
:1018D00004F05EF80521002001F0B3FA684601F03B
:1018E00009FB0026B0461CE002F03AFB801B334B9C
:1018F0009B68B0EBC30F26D8B8F1000F03D0294680
:101900002046FFF779FEFFF7FDFDF0B1FFF7B2FDCE
:1019100088B3FFF72DFE044687423DD1052002F033
:1019200025FBFFF703FC0446FFF70CFC05460CB94A
:101930000028D9D002F014FB0646B8F1000FDED122
:101940004FF00108DBE7A846DDE7FFF70BFE1C4B75
:10195000588082B21B49181D04F056F9184B5B8859
:101960003BB1591E164A0A441279202A0DD02F2A5B
:101970000ED0FFF793F90521002001F062FA12481A
:1019800001F0B8FA02B0BDE8F0810D4A5180E5E7F8
:10199000013B0B4A5380E1E70346074A08216846AA
:1019A00003F0F6FF0521002001F04BFA684601F034
:1019B000A1FA2746B2E700BF307F000828010020C7
:1019C0008005002084030020387F0008FEE7000027
:1019D00000B585B00190012302930323039301A96D
:1019E000054803F055F928B9012002F0BFFA05B007
:1019F0005DF804FBFFF7EAFF580800200000000034
:101A000010B5FFF7E5FF0C4C4FF0FF31204603F017
:101A100083F8204603F038F9FEF7C4FC04A3D3E9A9
:101A20000023FEF739FD0022044BFEF735FD10BD03
:101A30006666666666660A40580800200000303F09
:101A4000F0B587B0054678B10021012001F0F9F921
:101A5000714B1B78002B6FD1704B1B78002B6FD113
:101A60006F4B1B78002B6FD102F07AFA044635B920
:101A70006C4B1B68C31AB3F5FA7F40F28D800220CD
:101A8000FFF7BEFF06460F4653A3D3E90023FEF738
:101A90007FFF002873D152A3D3E900233046394693
:101AA000FEF776FF002879D14FA3D3E90023304613
:101AB0003946FEF76DFF002872D14DA3D3E900230C
:101AC00030463946FEF764FF00286BD14AA3D3E9BC
:101AD000002330463946FEF75BFF002864D148A357
:101AE000D3E9002330463946FEF752FF00285DD186
:101AF00045A3D3E9002330463946FEF749FF0028C5
:101B000056D10022484B30463946FEF741FF0028A7
:101B100050D13FA3D3E9002330463946FEF738FFC2
:101B2000002849D10022414B30463946FEF730FFAC
:101B3000002843D03E4E23E03E4801F0DBF92BE085
:101B40003D4801F0D7F927E0012B14D03B4B3C4A2C
:101B50001268002A11DB3B4902AC002AB8BF52428E
:101B600001920091384A1021204603F011FF2046CF
:101B700001F0C0F910E0354BE9E73549ECE7354EA7
:101B80001DB9354B1B68B34202D0FFF7CFFAB8B18D
:101B9000314B1E60234B1C6007B0F0BD2F4EEFE7AA
:101BA0002F4EEDE72F4EEBE72F4EE9E72F4EE7E7FD
:101BB0002F4EE5E72F4EE3E72F4EE1E72F4EDFE70D
:101BC000FFF7C0FA0028E3D10021012001F039F924
:101BD000304601F08FF9DBE7EC51B81E85EBA13FF1
:101BE000DBF97E6ABC74A33F6ABC74931804A63FF9
:101BF000FA7E6ABC7493A83F7B14AE47E17AB43F87
:101C0000B81E85EB51B8CE3F666666666666E63FEF
:101C100033333333333303408107002082070020FE
:101C200080070020680300200000FC3F0000044003
:101C3000B87F0008D07F0008DC7F0008407F0008E4
:101C40007C070020487F0008E87F00083C7F0008F0
:101C5000447F00084C7F000864030020587F000880
:101C6000647F0008707F00087C7F0008887F000880
:101C7000947F0008A07F0008AC7F0008C47F0008A4
:101C800038B5114B1B7803B938BDFFF781FA002036
:101C9000FFF7EEF8012200210846FFF709F90420BA
:101CA00000F0CAFF0120FFF7CBFE0024064B1C709A
:101CB000064D224629462046FFF7BCF82246294613
:101CC0000120FFF7B7F8DFE77E05002000B4C40469
:101CD00070B590B00020FFF7CBF80020FFF7D2F8E6
:101CE000FFF756FA1821314802F0AAF818213048B7
:101CF00002F0A6F82F4803F0ABF801F0C1F800217C
:101D0000084601F09EF82C4801F0F4F8002101206B
:101D100001F097F8294801F0EDF84FF47A7002F0DD
:101D200025F901F089F80021084601F08AF82448D5
:101D300001F0E0F80124264601E00134A4B27F2C32
:101D400019D8610089B20A2301221E4801F020FF40
:101D50000028F2D123461C4A4021684603F018FEB1
:101D6000684601F0C7F8002EE7D00021012001F0FD
:101D700068F80026E1E74FF47A7002F0F7F801F016
:101D80005BF8FEF7C5FFFEF73DFF0120FFF758FEA9
:101D900042F6063000F022FF0020FFF7D7FA0B4B87
:101DA00001221A70FFF76CFF10B070BDC40700204D
:101DB0008407002058080020F47F000800800008F5
:101DC0000C80000804080020148000087E05002014
:101DD000F0B585B002F0C4F83D4B1B68C31A632B05
:101DE00001D805B0F0BD04460020FFF709FE064605
:101DF0000F4635A3D3E90023FEF7C0FD0028F0D13C
:101E0000334B1C600120FFF7FBFD04460D462EA35B
:101E1000D3E90023FEF7B2FD08B1002400253246C5
:101E20003B4620462946FEF7C7FD00283DD13246F5
:101E30003B4620462946FEF759FC06460F4600223F
:101E4000244BFEF773F904460D4632463B4600200C
:101E50002049FEF769F902460B4620462946FEF75F
:101E600045FC04460D4622462B461B49D1E900019C
:101E7000FEF75AF921F0004113A3D3E90023FEF73E
:101E800087FD0028ADD10521012000F0DAFF0022F6
:101E9000124B20462946FEF785FD48B1104801F057
:101EA00029F80D4BC3E900459BE700240D4DDAE707
:101EB00002AECDE900450C4A0821304603F068FD2A
:101EC000304601F017F8ECE79A9999999999C93F2A
:101ED000800300200000F03F780300200000244031
:101EE0001C80000800003940208000082DE9F04FD8
:101EF00085B08946434B5E88434B00221A70834667
:101F000028B94FF0000A57465546D04621E03346DF
:101F10003E4A1021684603F03BFD0521002000F0F9
:101F200090FF684600F0E6FFEBE7394B9D6805EB54
:101F3000450500EB45050127A54232DD0020FFF7EE
:101F40006FFC00284DD1B9F1000F47D1052002F0F8
:101F50000DF8002E45D002F003F80446002FEBD117
:101F60008045EBDC274B53441B792F2BDDD0202BF6
:101F700008D02D2B0CD0FFF7F1F8254B9D68254498
:101F80000127D9E7224B9D6800EB45050127D3E7E0
:101F9000FFF7E4F81E4B9D6805EB45052544012736
:101FA000CAE7FFF7F5F8013E0AF1010A184B9B68F2
:101FB00003EB0408BBF1000F01D15F46BEE73346D7
:101FC000124A1021684603F0E3FC0521002000F0CE
:101FD00038FF684600F08EFF0027AFE7FFF7F8FEF6
:101FE000B4E7FFF7D5F8BBF1000F02D105B0BDE8AB
:101FF000F08F0521002000F024FF064800F07AFF52
:10200000F4E700BF800500207D050020307F000838
:1020100028010020387F0008F0B583B00023019329
:10202000644B1B7B33B1012B0DD0FFF7E5FB002682
:10203000374639E01423012201A95F48FFF774FBFA
:10204000FFF790FBF3E7FFF7C3FBF0E7FFF76EF84E
:102050000446FFF777F805460CB900283FD001F099
:102060007FFF064627B9534B9F78002F34D10127B5
:10207000504B9B78002B3DD02046FFF755FA142398
:10208000012201A94C48FFF74FFB0446002838D134
:10209000FFF708FA00283DD1FFF79AFB454B0122D4
:1020A0001A73052001F062FFFEF7B8FF414B1B7B5E
:1020B000002BCBD0012B43D0FFF7F4F9002862D1DD
:1020C0001423012201A93C48FFF72EFBFFF74AFB2E
:1020D000384B00221A73E4E7FFF720FAC8E701F053
:1020E0003FFF801B334B9B68B0EBC30F07D8002F1B
:1020F000C5D0BDE729462046FFF77EFABFE72F4649
:10210000BDE7FFF745F82046FEF772FEFFF72AFB12
:102110000027BDE7FFF7DEF928B9FFF76DFB254B78
:1021200002221A73BDE7FFF7A5F90028B9D1FEF71F
:1021300039FEFEF7B3FF0120FFF782FC03B0F0BDCC
:10214000FFF7B0F928B9FFF757FB1A4B02221A73B1
:10215000A7E7FFF7BFF958B91423012201A91648D0
:10216000FFF7E2FAFFF7FEFA124B00221A7398E724
:10217000FFF7C8F910B9FFF79FFB92E7FFF77AF96D
:1021800000288ED1D3E7FFF7A5F928B9FFF720FB88
:10219000084B01221A7384E7FFF7B4F920B9002134
:1021A0000120FFF7A3FE7CE7FFF764F900287FF426
:1021B00078AFBCE728010020C407002070B5FEF707
:1021C000B5FF0446FEF7BEFF05460CB9002830D027
:1021D00001F0C6FEA14B1860A14B1B78BBB1A04B10
:1021E0001B78002B62D0FEF757FE9E4B1B7898425F
:1021F00047D133B99C4B9B78002B52D02046FFF738
:1022000093F9FFF7E5FD052001F0B0FE70BDFEF784
:1022100043FE944E3070FFF7CBF8FFF73FFB337867
:10222000002BDCD1904B9B78002BD8D0FFF776F9B0
:10223000D5E78B4B1B78002BD1D001F091FE8A4B58
:102240009B78DBB9884B9B68C3EB0313854A1278F4
:1022500022B9824A1268801A9842C0D9FFF710FD4D
:102260001423012281498248FFF75EFA01234FF0CF
:10227000FF3280498048FFF757FAB0E74FF47A738E
:10228000E4E7FFF7FDFC1423012278497848FFF7C3
:102290004BFA01234FF0FF3276497748FFF744FAB3
:1022A000B1E729462046FFF7A7F9AAE7FEF7B6FEF1
:1022B000142301226D496E48FFF736FAD8B96F4BE7
:1022C0001B782BB16E4B1B7813B96E4B1B78CBB1BF
:1022D000FFF718F900284CD1694B1B78002B48D127
:1022E000684A137883F001031370002B33D0012068
:1022F000FFF7A6FB40E000221146FEF7D9FDFEF7EE
:10230000CDFEDCE701234FF0FF325A495A48FFF770
:102310000BFA02460028DBD05B490B68322000FB39
:1023200002330B60594A934208DA0A60534B1B7818
:10233000012B0AD00120FFF783FBC9E741F2883265
:102340009342F3DD504B1A60F0E70022114610462D
:10235000FEF7AEFDEEE71423012244494448FFF79F
:10236000E3F901234FF0FF3242494348FFF7DCF91C
:10237000BDE7444B1B7893B1404B1B78002B7FF497
:1023800042AF404B1B78002B7FF43DAF3C4B1B789A
:10239000002B7FF438AF0020FFF752FB33E7FFF745
:1023A00081F860BB364B1B782BB3002100E0013174
:1023B0000429E1DC364B1A6802EBC2030B440233FA
:1023C000344800EB83035C68B4F1FF3FEFD002EBCD
:1023D000C200304B03EB80039B689C42E7DD2D4B32
:1023E00003EB80039C60002211461046FEF760FD5F
:1023F000FEF754FEC0E70120FEF7A8FFBCE7FFF799
:1024000069F800284DD11E4B1B78002B44D00421C5
:1024100000E001390029AFDB1D4B1A6802EBC20353
:102420000B4402331B4800EB83035C68B4F1FF3FAD
:10243000EFD002EBC200174B03EB80039B689C427A
:10244000E7DA144B03EB80039C6000221146104630
:10245000FEF72EFDFEF722FE8EE700BF34030020BC
:102460007E0500207D05002028010020300300208B
:10247000C40700202C0300208407002080070020D0
:1024800081070020820700207C07002078ECFFFFF6
:1024900024010020040000204FF0FF30FEF756FF1B
:1024A0006AE7FFF723F8B8B9594A137883F00103B4
:1024B00013701BB10120FFF7C3FA5DE7142301225B
:1024C00054495548FFF730F901234FF0FF32534983
:1024D0005348FFF729F9EDE74D4B1B7873BBFEF727
:1024E000EDFF58BB4F4B1B786BB1012B18D04D4BF8
:1024F00000221A70012200210846FEF7D9FC0120B3
:10250000FFF79EFA38E70123464A1370464A002136
:1025100011604FF0FF3241494148FFF705F9E9E703
:10252000404B02221A70404B00221A6001234FF0E8
:10253000FF323A493A48FFF7F7F8DBE7FEF79AFF30
:1025400078B9FFF769FD1423012232493248FFF7B9
:10255000EBF801234FF0FF3230493148FFF7E4F840
:102560000AE7FEF793FF00287FF406AFFEF794FC1E
:1025700000283AD000224FF480412C4802F05BFA48
:102580002B4B00221A70FEF713FFFFF787F901F0BB
:10259000E7FC284B1860FEF7E1FDFFF719FC01F09E
:1025A000DFFC04460120FFF73BF930B9214B1868E6
:1025B000201A42F20F739842EFD9FEF7E9FDFFF7B8
:1025C0005FFB01224FF48041184802F034FA1423D3
:1025D000012210491048FFF7A7F801234FF0FF32FE
:1025E0000E490F48FFF7A0F8C6E6FEF7E1FEFFF739
:1025F00055F9114B9B7843B901210020FFF776FC78
:1026000001F0AEFC0B4B186000E6FEF787FFF3E726
:102610008107002030030020C40700202C03002085
:1026200084070020800700207C070020000C014068
:102630007D050020340300202801002010B58CB057
:1026400003AC24220021204603F09CFA00230193CE
:1026500002931048104A0260436083604FF6FF7295
:10266000C26003614361836101230393059309936E
:10267000214601F089FB48B900230193029301A987
:10268000044801F0FFFB18B90CB010BDFFF79EF92C
:10269000FFF79CF9C4070020002C014008B50A4848
:1026A0000A4B03600A4B436000238360C3604FF40E
:1026B0008042026143618361C361036200F0A8FE4E
:1026C00000B908BDFFF782F904080020005400405B
:1026D000A086010000B585B0002301930293039307
:1026E0001048114A026083600122C26043614FF4C6
:1026F0006021C1614360026102F044FC68B90023BB
:102700000193012302930723039301A9054802F0D3
:10271000BFFA20B905B05DF804FBFFF757F9FFF7E2
:1027200055F900BF580800200024014010B58CB0B6
:1027300003AC24220021204603F024FA0023019355
:10274000029310484FF080420260436083604FF66E
:10275000FF72C260036183610123039305930993B0
:10276000214601F011FB48B900230193029301A90E
:10277000044801F087FB18B90CB010BDFFF726F92B
:10278000FFF724F98407002010B594B00AAC282282
:102790000021204603F0F6F90023059306930793E2
:1027A00008930993019302930393049301230A93DB
:1027B0004FF480330B93204601F002FCC0B90F2385
:1027C00005930123069380230793002108914FF47A
:1027D000A063099305A801F01BFE58B902230193D9
:1027E0000023039301A801F007FF28B914B010BD1E
:1027F000FFF7ECF8FFF7EAF8FFF7E8F808B501F0A3
:1028000091FBFFF7C1FFFEF765F9FFF717FFFFF731
:1028100045FFFFF75FFFFFF789FFFFF759FAFFF763
:10282000CDFCFCE70F4B1A6842F001021A605968B0
:102830000D4A0A405A601A6822F0847222F48032EB
:102840001A601A6822F480221A605A6822F4FE0282
:102850005A604FF41F029A60044B4FF000629A6076
:10286000704700BF001002400000FFF800ED00E0DC
:1028700082B00E4B9A6942F001029A619A6902F0A5
:1028800001020092009ADA6942F08052DA61DB6953
:1028900003F080530193019B054A536823F0E063E2
:1028A00043F00073536002B0704700BF0010024055
:1028B0000000014000B587B0002302930393049306
:1028C00005930268114B9A4202D007B05DF804FBF1
:1028D00003F56C439A6942F400729A619A6902F4B2
:1028E00000720092009A9A6942F004029A619B6910
:1028F00003F004030193019B072302930323039333
:1029000002A9034801F086FFDFE700BF0024014071
:102910000008014010B586B000230293039304938E
:1029200005930268154B9A4201D006B010BD144CB5
:10293000A36943F00803A361A36903F008030093AC
:10294000009B4FF4407302931223039303230593D8
:1029500002A90C4801F05EFF0B4A536843F0E063A4
:1029600043F002035360E36943F40013E361E36956
:1029700003F400130193019BD7E700BF005400400C
:1029800000100240000C01400000014030B58BB047
:102990000023069307930893099303682F4A9342F1
:1029A00004D0B3F1804F1ED00BB030BD2C4B9A69D0
:1029B00042F400629A619A6902F400620192019AFB
:1029C0009A6942F004029A619B6903F0040302933E
:1029D000029B4FF4407306930123089306A92148F4
:1029E00001F018FFE0E703F50433DA6942F0010271
:1029F000DA61DA6902F001020392039A9A6942F0FD
:102A000004029A619A6902F004020492049A9A6993
:102A100042F008029A619B6903F008030593059B45
:102A20004FF4004306930125089506AC21460D4856
:102A300001F0F0FE08230693002307930895214632
:102A4000094801F0E7FE094A536823F4407343F054
:102A5000E06343F480735360A6E700BF002C01409D
:102A60000010024000080140000C0140000001403D
:102A70007047FEE7FEE7FEE7FEE7704770477047E6
:102A800008B501F061FA08BD2DE9F8430E46154678
:102A9000B0F5FA5F3CDB0446354B98423ADD344CE6
:102AA00000232B732046FDF78DFC2FA3D3E90023D1
:102AB000FDF71CFE804689462E4B1868FDF782FC08
:102AC00002460B4640464946FDF7E6FCFDF794FFFB
:102AD000241A294B9C4224DC284991FBF4F122154D
:102AE000C4F3130303B10132244B93FBF4F004FB52
:102AF000103393FBF2F394FBF2F20127002424201D
:102B000030607460B76029606B60AA60BDE8F883CC
:102B10004FF4FA541A4B9C42C2DCA40106232B73D7
:102B2000C0E7184B9C4204DC174B9C4217DD062182
:102B300000E0042101FB04F4144B83FB0423E017A1
:102B4000C0EBE350124B03FB1044124B83FB0423F6
:102B5000E417C4EBA304012200230F4FD0E70821A0
:102B6000E8E700BFAFF300800000000084D7974182
:102B700000688909880800203FF6D30400E9A435DD
:102B80003F420F007FD1F008FFE0F505893BE65595
:102B900040787D01ABAAAA2A02E50F0010B586B0E5
:102BA00004468DF817104FF0FF330322C0210A4866
:102BB00000F0EEFF0028F6D14FF0FF33029301231F
:102BC00001930DF1170200922246C021024800F045
:102BD00099FD06B010BD00BF0408002008B5154BD4
:102BE0001860FF210320FFF7D9FF80211020FFF795
:102BF000D5FF80211120FFF7D1FF80211220FFF7A0
:102C0000CDFF80211320FFF7C9FF80211420FFF79B
:102C1000C5FF80211520FFF7C1FF80211620FFF797
:102C2000BDFF80211720FFF7B9FFC021B720FFF7B4
:102C3000B5FF08BD8808002008B5C143C9B203200C
:102C4000FFF7ACFF08BDF8B505460F4616461C4613
:102C5000C3F30721FFF7A2FF681CE1B2C0B2FFF780
:102C60009DFFC7F301419DF818309B0003F00C0352
:102C700019439DF81C301B0103F07003A81C194375
:102C8000C0B2FFF78BFFE81CC7F30721C0B2FFF704
:102C900085FF281DF9B2C0B2FFF780FF211321F094
:102CA0000F0149B2C6F303431943681DC9B2C0B24C
:102CB000FFF774FFA81DC6F30721C0B2FFF76EFF30
:102CC000E81DF1B2C0B2FFF769FFF8BD10B582B0E0
:102CD0000C684A688B68D20192FBF3FC0CEBC411C0
:102CE000A1F5007103FB1C2258B91A20002401949D
:102CF0000094FFF7A8FFA021B120FFF74FFF02B01B
:102D000010BD2220F2E72DE9F04182B004460E46C4
:102D100015469C461F68D3F804809B68042F12D088
:102D20004FEAC81292FBF3F000EBC711A1F5007156
:102D300003FB10224FF0000E012C0AD0022C0AD007
:102D400044BB2A2008E00123002211464FF0030E65
:102D5000F2E7322000E03A209CF80CC0CDF804C025
:102D6000CDF800E0FFF76FFF45F00C01012E13D006
:102D7000B8F1000F01D0042F01D141F04001012C26
:102D80000DD0022C0FD014B91020FFF707FF02B0AE
:102D9000BDE8F0810020DFE745F02C01E8E71120D5
:102DA000FFF7FCFEF3E71220FFF7F8FEEFE7000065
:102DB00070B584B005460E464FF0FF330122174C24
:102DC0002178174800F0E4FE0028F5D105F0F00363
:102DD0002D01EDB2334343F00C028DF80C2043F08B
:102DE00008038DF80D3045EA060141F00C038DF81B
:102DF0000E3041F008018DF80F104FF0FF330093B3
:102E0000042303AA2178064800F0B8FB04460520F5
:102E100001F0ACF8204604B070BD00BF40010020B6
:102E20000408002008B50021FFF7C2FF08BD08B55F
:102E30000121FFF7BDFF08BD08B50120FFF7F2FF34
:102E400008BD08B5002903DB0F2902DD0F2100E0D2
:102E5000002128B9A1F18000C0B2FFF7E3FF08BD4F
:102E6000A1F14000C0B2FFF7DDFFF8E708B518B1E7
:102E70000E20FFF7D7FF08BD0C20FFF7D3FFFAE7BE
:102E800038B54FF0FF3303227E21184800F080FE52
:102E900010B9174B7E221A703020FFF7C3FF0220B3
:102EA000FFF7C0FF0020FFF7E1FFFFF7C5FF002598
:102EB00010E00020FFF7BBFF0134E4B2072C07D875
:102EC000C4F107039D42F4DB1F20FFF7B0FFF3E7D7
:102ED0000135EDB2072D08D8E800C0B2403000F04F
:102EE000F800FFF79FFF0024E8E738BD0408002042
:102EF0004001002010B5044602E0FFF798FF0134BE
:102F000020780028F9D110BD03685A6912F4806F47
:102F100001D1002070476FF480625A61042303647A
:102F200000230363202280F83D2080F83C300120FC
:102F300070472DE9F04107460D4690461E4620E0B9
:102F40002EB101F00DF8069BC01AB04219D900232A
:102F50003B63202287F83D2087F83E3087F83C30DD
:102F600003201EE03B689C6925EA040C1FFA8CFCD8
:102F7000BCFA8CFC4FEA5C1CE04511D1B6F1FF3F76
:102F8000DED1C5F30743012BECD13B685B6925EA31
:102F9000030C1FFA8CFCBCFA8CFC4FEA5C1CEBE7C0
:102FA0000020BDE8F0812DE9F04105460E461746A8
:102FB000984633E01A6842F400721A602B686FF486
:102FC00080625A6104232B6400232B63202285F83E
:102FD0003D2085F83C3001202EE02FB100F0C0FFED
:102FE000A0EB0800B84219D900232B63202285F8F2
:102FF0003D2085F83C3003201EE02B689C6926EAC2
:103000000404A4B2003C18BF0124A4B12B685A697F
:1030100012F4806FCED1B7F1FF3FDED1C6F3074384
:10302000012BEAD12B685C6926EA0404A4B2003CB7
:1030300018BF0124E9E70020BDE8F081F0B583B0B6
:1030400004460D4616461F46C36A042B0DD0012BBD
:103050000BD013F5803F08D0036B122B0AD1026806
:10306000136843F48073136004E02268136843F428
:10307000807313600097334600224FF00111204601
:10308000FFF757FF70BB2369B3F5804F0FD123685B
:1030900005F0FE051D613B46324614492046FFF708
:1030A00082FF00B3236C042B1AD003201BE0EB112A
:1030B000226803F0060343F0F00313613B463246F7
:1030C0000B492046FFF76FFF30B1236C042B01D072
:1030D000032008E0012006E02368EDB21D61DAE775
:1030E000012000E0032003B0F0BD00BF020001009A
:1030F0000800010070B504460D46164623685B695A
:1031000013F0800F19D12046FFF7FEFEB8B9B5F1D4
:10311000FF3FF3D025B100F023FF801BA842EDD97B
:10312000236C43F02003236400232363202284F8CC
:103130003D2084F83C30032000E0002070BD0120D9
:10314000FCE700002DE9F04385B004460D469146AA
:1031500098460C9E0D9F0368196841F480711960B0
:103160000097334600224FF00111FFF7E2FE0028DE
:103170004ED1236805F0FE051D613B4632462649C7
:103180002046FFF710FF30B1236C042B01D0032041
:103190003FE001203DE00023039323685A69039236
:1031A0009B690393039B3A4631462046FFF7A2FFF3
:1031B00058B1236C042B01D003202AE02268136845
:1031C00043F400731360012023E0B8F1010F04D130
:1031D00023685FFA89F61E611BE023684FEA192213
:1031E0001A613A4631462046FFF784FF58B1236CF6
:1031F000042B01D003200CE02268136843F4007311
:103200001360012005E023685FFA89F61E6100E083
:10321000032005B0BDE8F083020001002DE9F0476E
:1032200084B004460D4616469946DDF830800D9F61
:103230000268136843F4806313600368196841F4FB
:10324000807119600097434600224FF00111FFF78B
:1032500070FE00287ED15FFA85FA236805F0FE052E
:103260001D613B4642463E492046FFF79CFE30B179
:10327000236C042B01D003206DE001206BE00023C0
:10328000039323685A6903929B690393039B3A460D
:1032900041462046FFF72EFF58B1236C042B01D086
:1032A000032058E02268136843F400731360012080
:1032B00051E0B9F1010F0DD12368F6B21E613A4613
:1032C00041462046FFF716FF20B3236C042B1AD08B
:1032D000032040E02368320A1A613A4641462046FC
:1032E000FFF708FF58B1236C042B01D0032032E014
:1032F0002268136843F40073136001202BE02368F5
:10330000F6B21E61DBE72268136843F400731360B2
:10331000012020E02268136843F480731360009753
:10332000434600224FF001112046FFF702FEA8B9E4
:1033300022684AF0010313613B4642460849204691
:10334000FFF731FE38B1236C042B01D0032002E0DB
:10335000012000E0032004B0BDE8F0870320FAE775
:103360000200010070B504460D46164623685B69ED
:1033700013F0040F19D12046FFF7C6FDB8B9B5F117
:10338000FF3FF3D025B100F0EBFD801BA842EDD943
:10339000236C43F02003236400232363202284F85A
:1033A0003D2084F83C30032000E0002070BD012067
:1033B000FCE770B505460C4616462B68596911F0B6
:1033C000400F22D1596911F0100F11D124B100F032
:1033D000C7FD801BA042F0D92B6C43F020032B6467
:1033E000202385F83D30002385F83C30032070BD54
:1033F0006FF010025A6100232B642B63202285F8A2
:103400003D2085F83C300120F1E70020EFE7000087
:10341000002800F0A58010B5044690F83D30002B40
:1034200050D0242384F83D302268136823F0010330
:10343000136001F0C1F862684B4B9A4247D84B4B7E
:1034400098428CBF00230123002B40F08B80484B17
:10345000A3FB00239B0C226853606168424A91429F
:103460003BD801332268136262683F4B9A423ED8D0
:10347000431E5200B3FBF2F3013340F6FC721342D9
:103480006AD0C3F30B032268D361E369216A22681F
:103490000B4313602369E16822680B4393606369FF
:1034A000A16922680B43D3602268136843F00103CB
:1034B000136000202064202384F83D30206384F8CA
:1034C0003E0010BD80F83C30FFF724FAA9E7294BF5
:1034D00098428CBF00230123B6E74FF4967202FB9B
:1034E00003F3254AA2FB03239B090133BAE7A16832
:1034F000B9B9431E02EB420CB3FBFCF30133C3F337
:103500000B03B3FA83F35B0943BBC1B9431E02EB60
:103510004202B3FBF2F30133C3F30B0343F4004362
:10352000B1E7431E02EB820C0CEB8C0CB3FBFCF3FB
:103530000133C3F30B03B3FA83F35B09E4E7431EE0
:1035400002EB820202EB8202B3FBF2F30133C3F31C
:103550000B0343F4404396E7042394E7012392E7E7
:10356000012070470120ACE7A08601007F841E0087
:1035700083DE1B43FF083D00D34D62102DE9F0436D
:1035800085B004460F46904699460C9E00F0E8FC34
:1035900094F83D10202904D00227384605B0BDE834
:1035A000F083054600901923012255492046FFF774
:1035B000C0FC002840F0A08094F83C30012B00F0C3
:1035C0009D80012384F83C3023681A6812F0010FB3
:1035D00003D11A6842F001021A602268136823F4CA
:1035E00000631360212384F83D30102384F83E30BB
:1035F00000232364C4F82480A4F82A90A3F5803320
:10360000E362638D23852B46324639462046FFF719
:1036100015FD074660B1236C042B04D0002384F809
:103620003C300327B9E7002384F83C300127B4E796
:103630000023039323685A6903929B690393039BB6
:1036400012E0236C042B01D00327A6E7226813683D
:1036500043F40073136001279FE72A463146204652
:10366000FFF780FE00282DD1238D002B36D02A466F
:1036700031462046FFF73EFD0028E2D1636A5A1C1E
:10368000626222681B781361618D89B2013989B247
:103690006185238D013B9BB223852268516911F01E
:1036A000040FDAD0002BD8D0636A591C61621B78F2
:1036B0001361638D9BB2013B9BB26385238D013BFC
:1036C0002385CAE7236C042B01D0032765E7226812
:1036D000136843F40073136001275EE722681368E0
:1036E00043F400731360202384F83D30002384F8F2
:1036F0003E3084F83C3050E702274EE702274CE783
:10370000020010002DE9F04383B004460F469046B6
:1037100099460C9E00F024FC94F83D20202A03D00A
:10372000022003B0BDE8F083054600901923012272
:1037300050492046FFF7FDFB002840F0978094F8A1
:103740003C30012B00F09480012384F83C30236846
:103750001A6812F0010F03D11A6842F001021A60D0
:103760002268136823F400631360212384F83D303A
:10377000402384F83E30002323640A9B6362BDF833
:103780002C3063853C4BE362638D23850195009665
:103790004B46424639462046FFF7D4FCC0B1236C65
:1037A000042B04D0002384F83C300320B9E7002325
:1037B00084F83C300120B4E7236C042B01D00320B3
:1037C000AFE72268136843F4007313600120A8E791
:1037D000238D002B2AD02A4631462046FFF78AFC4B
:1037E0000028E9D1636A5A1C626222681B7813615F
:1037F000218D013989B22185638D9BB2013B9BB23A
:10380000638523685A6912F0040FE1D00029DFD0E4
:10381000626A511C616212781A61238D013B238513
:10382000638D9BB2013B9BB26385D1E72A4631464B
:103830002046FFF797FD58B1236C042B01D00320DD
:103840006FE72268136843F400731360012068E790
:103850002268136843F400731360202384F83D301A
:10386000002384F83E3084F83C305AE7022058E7C1
:10387000022056E7020010000000FFFF2DE9F04390
:1038800087B004460F4690469946109E00F068FBAC
:1038900094F83D20202A04D00227384607B0BDE81E
:1038A000F083054600901923012295492046FFF731
:1038B00040FB002840F0618194F83C30012B00F07F
:1038C0005E81012384F83C3023681A6812F0010FEE
:1038D00003D11A6842F001021A602268136823F4C7
:1038E00000631360222384F83D30402384F83E3087
:1038F000002323640E9B6362BDF83C306385814BDB
:10390000E362638D2385019500964B464246394616
:103910002046FFF783FC074660B1236C042B04D0DC
:10392000002384F83C300327B7E7002384F83C30B9
:103930000127B2E7238D5BB9029323685A6902928B
:103940009A690292029A1A6842F400721A6082E03E
:10395000012B0FD0022B21D02268136843F480631F
:1039600013600023059323685A6905929B690593A8
:10397000059B70E02268136823F48063136072B6BD
:103980000023039323685A6903929A690392039A66
:103990001A6842F400721A6062B65CE0226813682A
:1039A00043F40063136072B60023049323685A69DA
:1039B00004929A690492049A1A6822F480621A6046
:1039C00062B648E02A4631462046FFF7F2FC70B95D
:1039D00023681A69636A591C61621A70238D013B5E
:1039E0002385638D9BB2013B9BB2638533E0236CDF
:1039F000202B01D0012750E703274EE700953346DF
:103A0000002241492046FFF794FA002840F0B9808F
:103A100072B62268136843F40073136023681A694E
:103A2000636A591C61621A70238D013B2385638D83
:103A30009BB2013B9BB2638562B623681A69636AD5
:103A4000591C61621A70238D013B2385638D9BB2E3
:103A5000013B9BB26385238D002B00F08580032BF7
:103A600054D8012BAED0022BC8D00095334600228B
:103A700025492046FFF75DFA002840F0848022683F
:103A8000136823F48063136072B623681A69636A4B
:103A9000591C61621A70238D013B2385638D9BB293
:103AA000013B9BB2638500953346002216492046B0
:103AB000FFF73FFA002868D12268136843F40073C7
:103AC000136023681A69636A591C61621A70238D36
:103AD000013B2385638D9BB2013B9BB2638562B63C
:103AE00023681A69636A591C61621A70238D013B4D
:103AF0002385638D9BB2013B9BB26385ABE700BF1F
:103B0000020010000000FFFF040001002A463146B9
:103B10002046FFF74EFC00BB23681A69636A591CF4
:103B200061621A70238D013B2385638D9BB2013B3B
:103B30009BB2638523685A6912F0040F8BD01A690F
:103B4000636A591C61621A70238D013B2385638D62
:103B50009BB2013B9BB263857DE7236C202B01D098
:103B600001279AE6032798E6202384F83D300023B6
:103B700084F83E3084F83C308FE602278DE6022739
:103B80008BE6032789E6032787E6032785E600BF40
:103B90002DE9F04385B00446884691461D4600F065
:103BA000DFF994F83D30202B03D0022005B0BDE8AA
:103BB000F083064600901923012255492046FFF75D
:103BC000B8F9002840F09A8094F83C30012B00F0BE
:103BD0009780012384F83C3023681A6812F0010FA3
:103BE00003D11A6842F001021A602268136823F4B4
:103BF00000631360242384F83D3000232364A3F57D
:103C00008033E362012735E0A02384F83D30226849
:103C10005369C3F340035269C2F3802294F83D1004
:103C2000C9B253B94AB9A02907D0002DECD000F091
:103C300097F9801BA842EAD9E6E7202384F83D30B3
:103C400023685A6912F0020F35D11A6842F40072E3
:103C50001A6023686FF480625A610096192301226A
:103C60002B492046FFF765F900284FD17B1C4F45B3
:103C70003CD21F462268136843F480731360009699
:103C80002B4600224FF001112046FFF752F9002881
:103C900038D1236808F0FE021A6100F061F9064687
:103CA00022685369C3F340035269C2F3802294F837
:103CB0003D10C9B2B5E71A6842F400721A600023D9
:103CC000039323685A6903929B690393039B0096AD
:103CD000192301220E492046FFF72BF9A0B9202312
:103CE00084F83D30002384F83C305FE7202384F8DB
:103CF0003D30002384F83C30012057E7022055E78F
:103D0000022053E7032051E703204FE703204DE74C
:103D10000200100003681B4A90420AD0B0F1804FA5
:103D200007D0A2F59432904203D002F5806290420F
:103D300003D123F070034A681343124A90420AD019
:103D4000B0F1804F07D0A2F59432904203D002F533
:103D50008062904203D123F44073CA68134323F076
:103D600080034A691A4302608B68C3620B688362EE
:103D7000044B984202D00123436170470B690363EF
:103D8000F9E700BF002C014000284AD070B50C466E
:103D9000054690F83D30002B3ED0022385F83D309B
:103DA0002A68936823F007039360294651F8040BAF
:103DB000FFF7B0FF29688B688A690E6A206818438C
:103DC00022F4407222F00302A368D4F818C043EA38
:103DD0000C23134323F47C4323F0FC03E268D4F860
:103DE0001CC042EA0C221A43236A1B03D4F810C0F9
:103DF00043EA0C13134326F0AA066268646942EA98
:103E000004123243886029688B612B681A6201238F
:103E100085F83D30002070BD80F83C30FEF7B6FDDF
:103E2000BBE7012070474FF0010C0CFA01FC036A5C
:103E300023EA0C030362036A8A4013430362704758
:103E400010B5044661B1042916D001220021006892
:103E5000FFF7E9FF012204212068FFF7E4FF04E0F7
:103E6000012200210068FFF7DEFF2268136843F09B
:103E700001031360002010BD012204210068FFF738
:103E8000D2FFF2E790F83C20012A22D030B403465A
:103E9000012083F83C00022283F83D201C68626800
:103EA00022F0700262601C6862680D682A436260DA
:103EB0001C68A26822F08002A2601C68A26849689F
:103EC0000A43A26083F83D00002083F83C0030BC28
:103ED000704702207047000010B504460E4B1A7858
:103EE0004FF47A73B3FBF2F30C4A1068B0FBF3F0B3
:103EF00000F0FEFD68B90F2C01D901200AE0002274
:103F000021464FF0FF3000F0E3FD054B1C60002020
:103F100000E0012010BD00BF410100203C01002055
:103F20004401002008B5074A136843F010031360EA
:103F3000032000F0BBFD0020FFF7CEFFFEF798FC4A
:103F4000002008BD00200240034A1168034B1B7883
:103F50000B441360704700BF8C0800204101002013
:103F6000014B1868704700BF8C08002038B5044624
:103F7000FFF7F6FF0546B4F1FF3F02D0044B1B7874
:103F80001C44FFF7EDFF401BA042FAD338BD00BF31
:103F90004101002082B0084B1B68084AA2FB0323A2
:103FA0005B0A00FB03F3019300BF019B5A1E0192C1
:103FB000002BF9D102B070473C010020D34D6210B4
:103FC00070B582B00446036813F0010F2CD09A4BF1
:103FD0005B6803F00C03042B1DD0974B5B6803F068
:103FE0000C03082B12D06368B3F5803F41D0002B3F
:103FF00055D103F1804303F504331A6822F480326B
:104000001A601A6822F480221A6037E08A4B5B68D3
:1040100013F4803FE7D0884B1B6813F4003F03D0B4
:104020006368002B00F0AE81236813F0020F75D097
:10403000814B5B6813F00C0F5FD07F4B5B6803F024
:104040000C03082B54D02369002B00F08A807B4B93
:1040500001221A60FFF784FF0546774B1B6813F0B7
:10406000020F75D1FFF77CFF401B0228F5D9032012
:104070008DE1714A136843F480331360636843B37E
:10408000FFF76EFF05466C4B1B6813F4003FCBD166
:10409000FFF766FF401B6428F5D9032077E1B3F5ED
:1040A000A02F09D0644B1A6822F480321A601A6873
:1040B00022F480221A60E1E703F18043A3F53C3348
:1040C0001A6842F480221A601A6842F480321A6038
:1040D000D4E7FFF745FF0546574B1B6813F4003F35
:1040E000A2D0FFF73DFF401B6428F5D903204EE125
:1040F000514B5B6813F4803FA5D14F4B1B6813F005
:10410000020F03D02369012B40F03E814A4A136815
:1041100023F0F803616943EAC1031360236813F0D5
:10412000080F33D0A369002B5CD0444B0122C3F8A5
:104130008024FFF715FF05463F4B5B6A13F0020F23
:1041400021D1FFF70DFF401B0228F5D903201EE106
:10415000394A136823F0F803616943EAC103136025
:10416000DCE7364B00221A60FFF7FAFE0546324BB9
:104170001B6813F0020FD1D0FFF7F2FE401B02289C
:10418000F5D9032003E10120FFF704FF236813F0B2
:10419000040F00F09780284BDB6913F0805F34D167
:1041A000254BDA6942F08052DA61DB6903F0805313
:1041B0000193019B0125224B1B6813F4807F26D0BD
:1041C000E368012B3ED0002B54D103F1804303F56B
:1041D00004331A6A22F001021A621A6A22F00402F7
:1041E0001A6234E0154B0022C3F88024FFF7B8FEB2
:1041F0000546114B5B6A13F0020FC7D0FFF7B0FE04
:10420000401B0228F5D90320C1E00025D3E70C4A62
:10421000136843F480731360FFF7A2FE0646084B51
:104220001B6813F4807FCBD1FFF79AFE801B6428B4
:10423000F5D90320ABE000BF00100240000042426D
:1042400000700040544A136A43F001031362E368AC
:1042500033B3FFF785FE06464F4B1B6A13F0020F80
:104260002FD1FFF77DFE801B41F288339842F3D9AE
:1042700003208CE0052B09D0474B1A6A22F001027B
:104280001A621A6A22F004021A62E0E7424B1A6AC2
:1042900042F004021A621A6A42F001021A62D6E778
:1042A000FFF75EFE06463C4B1B6A13F0020F08D078
:1042B000FFF756FE801B41F288339842F3D9032062
:1042C00065E0E5B9E369002B60D0334A526802F03B
:1042D0000C02082A5DD0022B17D0304B00221A6640
:1042E000FFF73EFE04462C4B1B6813F0007F47D0BF
:1042F000FFF736FE001B0228F5D9032047E0264AC7
:10430000D36923F08053D361DCE7244B00221A6683
:10431000FFF726FE0546204B1B6813F0007F06D0F2
:10432000FFF71EFE401B0228F5D903202FE0236A69
:10433000B3F5803F1AD018494B6823F47413226AEE
:10434000606A024313434B60144B01221A66FFF765
:1043500007FE0446104B1B6813F0007F0ED1FFF7D9
:10436000FFFD001B0228F5D9032010E00A4A53681C
:1043700023F40033A1680B435360DCE7002006E020
:10438000002004E0012002E0012000E0002002B053
:1043900070BD0120FBE700BF001002400000424258
:1043A00086B0174B0FCB0DF1180C0CE90F0040F243
:1043B0000123ADF80430134B5B6803F00C02082AAC
:1043C00002D0114806B07047C3F3834218326A44E2
:1043D00012F8100C13F4803F0DD00A4B5B68C3F346
:1043E000404318336B4413F8143C074A02FB00F0B7
:1043F000B0FBF3F0E6E7054B03FB00F0E2E700BF9C
:10440000288000080010024000127A0000093D00D8
:1044100070B504460D46614B1B6803F007038B42E1
:104420000BD25E4A136823F007030B431360136833
:1044300003F007038B4240F0AB80236813F0020FB8
:1044400017D013F0040F04D0554A536843F4E063C7
:104450005360236813F0080F04D0514A536843F4A3
:10446000605353604E4A536823F0F003A1680B4336
:104470005360236813F0010F52D06368012B23D0DF
:10448000022B28D0464A126812F0020F00F08280F8
:1044900043494A6822F0030213434B60FFF760FD73
:1044A00006466368012B1DD0022B2AD03C4B5B686B
:1044B00013F00C0F34D0FFF753FD831B41F2883209
:1044C0009342F3D9032062E0354A126812F4003FA8
:1044D000DED101205BE0324A126812F0007FD7D1B2
:1044E000012054E02E4B5B6803F00C03042B17D023
:1044F000FFF736FD831B41F288329342F2D9032045
:1045000045E0274B5B6803F00C03082B08D0FFF74E
:1045100027FD801B41F288339842F2D9032036E010
:104520001E4B1B6803F00703AB420AD91B4A1368F2
:1045300023F007032B431360136803F00703AB4218
:104540002AD1236813F0040F06D0154A536823F4C8
:10455000E063E1680B435360236813F0080F07D052
:104560000F4A536823F46053216943EAC10353603F
:10457000FFF716FF0A4B5B68C3F30313094AD35CCA
:10458000D840094B18600020FFF7A6FC002070BD42
:104590000120FCE70120FAE70120F8E700200240B3
:1045A00000100240448000083C010020014B1868C4
:1045B000704700BF3C01002008B5FFF7F7FF044B30
:1045C0005B68C3F30223034AD35CD84008BD00BF35
:1045D000001002403C80000808B5FFF7E7FF044BDD
:1045E0005B68C3F3C223034AD35CD84008BD00BF55
:1045F000001002403C80000870B582B00446036899
:1046000013F0010F36D03F4BDB6913F0805F4AD1C6
:104610003C4BDA6942F08052DA61DB6903F0805387
:104620000193019B0125384B1B6813F4807F3CD01C
:10463000344B1B6A13F4407313D0626802F4407267
:104640009A420ED02F4A136A23F440702F49012654
:10465000C1F840640026C1F84064106213F0010FF5
:1046600037D1284A136A23F4407361680B431362FD
:10467000002D3FD1236813F0020F06D0214A536862
:1046800023F44043A1680B435360236813F0100FD9
:1046900035D01C4A536823F48003E1680B43536010
:1046A000002002B070BD0025BDE7174A136843F42F
:1046B00080731360FFF754FC0646134B1B6813F41A
:1046C000807FB5D1FFF74CFC801B6428F5D903200F
:1046D000E7E7FFF745FC06460A4B1B6A13F0020F9B
:1046E000BFD1FFF73DFC801B41F288339842F3D9DC
:1046F0000320D6E7D36923F08053D361BAE70020C3
:10470000CFE700BF001002400070004000004242AE
:1047100000B587B084463A4B0FCB0DF1180E0EE969
:104720000F0040F20123ADF80430BCF1020F53D06A
:10473000BCF1100F04D0BCF1010F2CD0002055E0CB
:10474000304B5A68186810F080704FD0C2F3834322
:1047500018336B4413F8100C12F4803F17D0294B18
:104760005B68C3F3404318336B4413F8142C264B97
:10477000B3FBF2F303FB00F0224B5B6813F4800FF2
:1047800034D14000214BA3FB003040082EE0204BE9
:1047900003FB00F0F0E71B4B1B6A40F202321A40A9
:1047A000B2F5817F25D003F44073B3F5007F04D0C8
:1047B000B3F5407F09D0002018E0124A526A12F087
:1047C000020FF5D049F6404010E00E4B1B6813F481
:1047D000003F11D1002009E0FFF7FEFE094B5B68A6
:1047E000C3F3813301335B00B0FBF3F007B05DF836
:1047F00004FB4FF40040F9E74FF22440F6E700BF16
:10480000288000080010024000127A00ABAAAAAA71
:1048100000093D0070B582B00024A4469EE07C4DA6
:10482000AA4214D00CD8A5F58015AA420FD005F5E0
:104830007025AA420BD0A5F58015AA421FD106E02B
:10484000744DAA4203D005F58035AA4217D18A6873
:10485000A2B1012A0DD04361082410E0CC680EE01B
:10486000CC6804340BE0CC68083408E0CC680C3425
:1048700005E00361082402E0002400E00424BEF106
:10488000FF0F37D806464FEA8C0233680F25954054
:1048900023EA050304FA02F2134333604B6813F072
:1048A000805F59D05C4B9A6942F001029A619B6922
:1048B00003F001030193019B4FEA9C02951C574BA7
:1048C00053F825600CF00305AD000F23AB4026EA3A
:1048D0000306534B984214D003F58063984279D075
:1048E00003F58063984277D003F58063984206D041
:1048F000042307E0061DACF108029200C5E703237C
:1049000000E00023AB4033430232444D45F82230EF
:104910004B6813F4803F61D0424A136843EA0E03A8
:1049200013604B6813F4003F5ED03E4A536843EA7D
:104930000E0353604B6813F4801F5BD0394A9368B1
:1049400043EA0E0393604B6813F4001F58D0354AB6
:10495000D36843EA0E03D3600CF1010CBCF10F0FD6
:1049600054D8012303FA0CF30A6802EA030E33EA6F
:104970000202F1D14A68122A3FF651AF122A3FF6DD
:104980007EAF01A555F822F04F4800085D480008A9
:1049900067480008794800087F4800087F480008F9
:1049A0007F4800087F4800087F4800087F480008CB
:1049B0007F4800087F4800087F4800087F480008BB
:1049C0007F4800087F4800087F48000861480008C9
:1049D0006D480008012395E7022393E7114A136805
:1049E00023EA0E0313609CE70E4A536823EA0E0382
:1049F00053609FE70B4A936823EA0E039360A2E794
:104A0000084AD36823EA0E03D360A5E702B070BD5D
:104A10000000221000003110001002400000014090
:104A200000080140000401408368194201D00120C0
:104A30007047002070470AB10161704709040161A5
:104A400070470000002808DB0901C9B200F160408E
:104A500000F5614080F80013704700F00F00090175
:104A6000C9B2014B1954704714ED00E000B500F0D5
:104A70000700C0F1070CBCF1040F28BF4FF0040C75
:104A8000031D062B0FD9C31E4FF0FF3E0EFA0CF08C
:104A900021EA000199400EFA03FE22EA0E0241EAE1
:104AA00002005DF804FB0023EEE70000074AD3682C
:104AB00023F4E0631B041B0C000200F4E0600343DA
:104AC00043F0BF6343F40033D360704700ED00E070
:104AD00010B50446054BD868C0F30220FFF7C6FFA7
:104AE00001462046FFF7AEFF10BD00BF00ED00E01D
:104AF0000138B0F1807F0BD24FF0E0235861054AB6
:104B0000F02182F823100020986107221A61704773
:104B10000120704700ED00E0F0B583B005460C467B
:104B200000230193FFF71CFA2B689A6812F4807F28
:104B300023D107465A6812F4807F03D1DB6A13F44D
:104B4000700F24D04B4B1E680220FFF7E1FDB6FB2F
:104B5000F0F62B681969484A11422FD1D96802F141
:104B60005C4211422AD11969444A114239D1DA68AA
:104B7000434B1A4237D029233AE0AB6A43F0200373
:104B8000AB62002385F82430012003B0F0BD2B6810
:104B90001B6813F0020F48D1B4F1FF3FF7D024B1E6
:104BA000FFF7DEF9C01BA042F1D9AB6A43F0040362
:104BB000AB62002385F824300320E6E719692F4A09
:104BC000114204D1D96802F16E4211420DD0196927
:104BD0002C4A0A405AB9DA682A4B13405BB1FC23CD
:104BE00006E0292304E0142302E0542300E0FC2320
:104BF00003FB06F604E05423FAE7019B013301931B
:104C0000019BB34211D2B4F1FF3FF6D024B1FFF7BC
:104C1000A7F9C31BA342F0D9AB6A43F00403AB620C
:104C2000002385F824300320AFE72B686FF01202D1
:104C30001A60AB6A43F40073AB622B689B6803F4A1
:104C40006023B3F5602F01D000209EE7EB686BB9BD
:104C5000AB6A23F48073AB62AB6A13F4805F07D155
:104C6000AB6A43F00103AB6200208EE700208CE7C3
:104C700000208AE73C010020244992249224491212
:104C800092244900499224000368D86C70470000C0
:104C900030B482B00022019290F82420012A00F062
:104CA0008F800346012280F824204A68062A2DD8E6
:104CB0000468606B02EB8202053A4FF01F0C0CFA9D
:104CC00002FC20EA0C000D6805FA02F2024362635E
:104CD0000A68092A38D91C68E06802EB42021E3AC9
:104CE0004FF0070C0CFA02FC20EA0C008D6805FA64
:104CF00002F20243E2600A68103A012A34D9002025
:104D0000002283F8242002B030BC70470C2A0DD852
:104D10000568286B02EB8202233A1F24944020EAA4
:104D200004000C68944020432863D1E70568E86AD2
:104D300002EB8202413A1F24944020EA04000C68EE
:104D400094402043E862C3E71C68206902EB4202FA
:104D50004FF0070C0CFA02FC20EA0C008D6805FAF3
:104D600002F202432261C6E71A681648824205D061
:104D70009A6A42F020029A620120C1E7906810F41A
:104D8000000F1BD1906840F4000090600A68102A60
:104D900001D00020B4E70C4A12680C49A1FB0212B2
:104DA000920C02EB82025200019202E0019A013A57
:104DB0000192019A002AF9D10020A1E700209FE783
:104DC0000220A0E7002401403C01002083DE1B43B9
:104DD00030B583B00023019303689A6812F0010F85
:104DE0002ED104469A6842F001029A60164B1B6865
:104DF000164AA2FB03239B0C019302E0019B013B9B
:104E00000193019B002BF9D1FFF7AAF8054623680F
:104E10009B6813F0010F11D1FFF7A2F8431B022B7F
:104E2000F5D9A36A43F01003A362E36A43F00103D8
:104E3000E362002384F82430012002E0002000E037
:104E4000002003B030BD00BF3C01002083DE1B43C7
:104E500090F82430012B68D010B50446012380F867
:104E60002430FFF7B5FF00285BD1A36A23F4407319
:104E700023F0010343F48073A36223682C4A934216
:104E800027D0A26A22F48012A2625A6812F4806FBC
:104E900005D0A26A22F4405242F48052A262A26A71
:104EA00012F4805F2BD0E26A22F00602E262002256
:104EB00084F824206FF002021A6023689A6802F4D2
:104EC0006022B2F5602F1DD09A6842F480129A6079
:104ED0002AE0A2F58062526812F4702FD1D0A26A43
:104EE00042F48012A262134A526812F4806FD6D044
:104EF000A26A22F4405242F48052A262CFE700221A
:104F0000E262D4E70A4A934204D09A6842F4A002CB
:104F10009A6009E0A2F58062526812F4702FD3D132
:104F2000F3E7002384F8243010BD0220704700BF4F
:104F3000002801400024014038B503689A6812F047
:104F4000010F01D1002038BD04469A6822F0010209
:104F50009A60FFF705F8054623689B6813F0010F78
:104F60000ED0FEF7FDFF431B022BF5D9A36A43F0D9
:104F70001003A362E36A43F00103E3620120E2E766
:104F80000020E0E700287BD070B50446836A002B40
:104F90004DD02046FFF7D0FFA36A13F0100369D16C
:104FA000002867D1A26A22F4885222F0020242F05D
:104FB0000202A2626268E1690A43E16842EA4102D0
:104FC000A568B5F5807F02D0012D36D01D466669F3
:104FD000012E35D02668716821F46941294371603A
:104FE0002568AE68274931401143A960A168B1F531
:104FF000807F01D0012902D12369013B1B0525686F
:10500000E96A21F470010B43EB62236899681E4B37
:105010000B409A4225D0A36A23F0120343F01003F9
:10502000A362E36A43F00103E362012027E0C36265
:1050300080F82430FDF73EFCABE74FF48075C6E7FF
:1050400031B9A169013945EA413141F40065C1E74F
:10505000A16A41F02001A162E16A41F00101E1622F
:10506000B8E70023E362A36A23F0030343F00103DC
:10507000A36204E0A36A43F01003A362012070BDA1
:1050800001207047FDF7E1FFFE0E1FFF002103E046
:105090000B4B5B58435004310A480B4B42189A4261
:1050A000F6D30A4A02E0002342F8043B084B9A4236
:1050B000F9D3FDF7B7FB00F06DFDFDF79FFB7047DF
:1050C000EC830008000000201003002010030020E3
:1050D000E0090020FEE7002B2DE9F0471D46BBBF8D
:1050E00003F100431D4600232D2388B01446B8BFAA
:1050F0001446129A109E1370149BDDF84CA023F0F6
:105100002008B8F1460F05D0B8F1450F00D101369F
:10511000022300E0032307AA049206AACDE902A213
:10512000CDE9003622462B4600F006FEB8F1470FC7
:10513000074619D1119BDB070ED500EB06090022AB
:10514000002320462946FBF70FFC08B1CDF81C9040
:105150003022079B4B451ED33846079B159ADB1B15
:10516000136008B0BDE8F087B8F1460F00EB060900
:10517000E5D10378302B0AD10022002320462946AE
:10518000FBF7F2FB18B9C6F10106CAF80060DAF8BD
:1051900000309944D3E7591C07911A70D9E7F7B545
:1051A0000029B6BF2D232B234942092902704370E1
:1051B00029DD0DF1070425460A27B1FBF7F6224643
:1051C00007FB1613303302F8013C0B46632B3146C4
:1051D00004F1FF34F1DC3031931E04F8011C1C464D
:1051E000411CAB420AD30DF109039B1AA54238BFFB
:1051F0000023821C1344181A03B0F0BD13F8016B8E
:1052000001F8016FEDE7302330318370C170031D69
:10521000F1E700002DE9F04F91B00C46DDF8688011
:1052200016461F46054600F0DDFC036818460A9343
:10523000FAF76EFF00230E93D8F8003094F818A008
:10524000073323F00703F3E80212D4F800B0CDE9E6
:105250000812C8F8003013460A46C4E91223DDE9F3
:10526000088323F000490B904FF0FF324046494637
:105270009B4BFBF7ABFB70BB4FF0FF324046494600
:10528000974BFBF785FB30BBDDE9080100220023CB
:10529000FBF774FB10B12D2384F84330914A924BF5
:1052A000BAF1470F8CBF9046984603234FF0000990
:1052B00023612BF0040323603346214628460097E0
:1052C0000FAA00F0D3F9013040F08F804FF0FF308B
:1052D00011B0BDE8F08FDDE9082310461946FBF751
:1052E00075FB40B1099B814A002BBCBF2D2384F87C
:1052F00043307F4BD4E763680AF0DF095A1C3ED184
:105300000623636000224BF48063236006920EAA9A
:10531000CDE904A20DAA03920DF13302CDE90132C9
:10532000636828460093DDE90823FFF7D4FEB9F14E
:10533000470F80460D9929D1C81C02DB63688B4258
:1053400041DAAAF1020A5FFA8AFA5246013904F1F7
:1053500050000D91FFF723FF0E9A81461318012A82
:10536000236102DC2268D20701D5013323619DF855
:105370003330002BA0D02D2384F843309CE7B9F1C3
:10538000470FBFD1002BBDD10123BAE7BAF1650F9A
:10539000DBD9BAF1660F18D1002963680BDD2161F2
:1053A00013B92268D00702D501330B4423614FF0B3
:1053B0000009A165DBE713B92268D20701D50233E2
:1053C000F4E70123F2E74FF0670A0E9B8B4205DCFE
:1053D00023682161D807EAD54B1CE7E70029CCBF39
:1053E0000122C1F102021344E0E723685A0507D401
:1053F0002369424631462846B84701302BD165E73C
:10540000BAF1650F40F2DC80D4E9120100220023DA
:10541000FBF7AAFA002833D0012331462846354A43
:10542000B84701303FF452AFDDE90D38434502DBA8
:105430002368D8070FD5DDE90A2331462846B84747
:1054400001303FF443AF4FF0000908F1FF3804F199
:105450001A0AC84509DC23689B0700F10281E0684D
:105460000F9B9842B8BF184632E701235246314697
:105470002846B84701303FF429AF09F10109E8E7B0
:105480000D9B002B38DC012331462846194AB847CA
:1054900001303FF41BAFDDE90D3959EA030302D1B6
:1054A0002368D907D7D5DDE90A2331462846B8470E
:1054B00001303FF40BAF4FF0000A04F11A0B0D9BC3
:1054C0005B42534501DC4B4693E701235A46314684
:1054D0002846B84701303FF4F9AE0AF1010AEEE779
:1054E000FFFFEF7F588000085480000860800008AC
:1054F0005C80000864800008A36DDDF838A0534587
:10550000A8BF5346002B994636DC4FF0000B29EA22
:10551000E97904F11A02A36D0893A3EB09035B4533
:1055200031DC0D9B9A453ADC2368DA0737D40D9BB2
:10553000AAEB0309089BAAEB03039945A8BF994668
:10554000B9F1000F33DC4FF0000829EAE97904F1E2
:105550001A0B0D9BAAEB0303A3EB090343457FF74B
:105560007AAF01235A4631462846B84701303FF406
:10557000ADAE08F10108ECE7424631462846B8478F
:105580000130C2D1A2E60123314628460892B8472D
:1055900001303FF49BAE089A0BF1010BBBE731469B
:1055A000DDE90A232846B8470130C0D18EE6089AC3
:1055B0004B46314628464244B8470130C3D185E6C0
:1055C000DDF838A0BAF1010F01DCDB0736D5012385
:1055D000424631462846B84701303FF477AEDDE910
:1055E0000A2331462846B84701303FF46FAED4E96C
:1055F0001201002200230AF1FF3AFBF7B5F9C0B906
:10560000534608F1010231462846B84701300CD113
:105610005CE601235A4631462846B84701303FF43C
:1056200055AE08F10108D045F3DB4B4604F15002BA
:10563000E0E64FF0000804F11A0BF4E701234246BC
:10564000E1E701234A4631462846B84701303FF496
:105650003DAE08F10108E3680F995B1A4345F0DCA1
:10566000FDE64FF0000804F11909F4E72DE9F047D1
:10567000164698468A680B6907469342B8BF134698
:10568000336091F843200C46DDF820900AB10133D5
:1056900033602368990642BF33680233336025685C
:1056A00015F0060506D104F1190AE36832689B1A61
:1056B000AB422BDC94F843302268003B18BF012337
:1056C000920630D44146384604F14302C8470130BF
:1056D00023D02368226903F00603042B14BF00259E
:1056E00033684FF0000608BFE56804F11A0408BFEC
:1056F000ED1A54F8123C08BF25EAE5759342C4BF81
:105700009B1AED18B5421AD1002008E00123524639
:1057100041463846C847013003D14FF0FF30BDE85D
:10572000F0870135C1E73020E11881F843005A1CA9
:1057300094F845102244023382F84310C2E7012353
:10574000224641463846C8470130E6D00136D9E7FF
:105750002DE9FF470F7E9146782F80460C469A46EA
:105760000C9E01F1430207D8622F0AD8002F00F0E7
:10577000D280582F00F0B78004F1420684F84270BE
:105780003AE0A7F16303152BF6D801A151F823F0F5
:10579000E9570008FD5700087957000879570008B5
:1057A0007957000879570008FD5700087957000815
:1057B000795700087957000879570008FD58000804
:1057C00027580008B358000879570008795700088F
:1057D0001F59000879570008275800087957000812
:1057E00079570008BB58000833681A1D1B683260DF
:1057F00004F1420684F8423001239DE033682068BA
:10580000191D3160060601D51D6803E04506FBD56C
:10581000B3F90050002D03DA2D236D4284F8433094
:105820000A23594810E021683368080653F8045BDE
:1058300002D4490648BFADB26F2F5348336059D1E7
:105840000823002184F843106668002EA66005DB5B
:1058500021682E4321F0040121604DD01646B5FB8E
:10586000F3F103FB1157C75D06F8017D2F46BB42DC
:105870000D46F4D9082B0BD12368DF0708D523691F
:1058800061689942DEBF302306F8013C06F1FF361D
:10589000921B22614B4621464046CDF800A003AA48
:1058A000FFF7E4FE01304CD14FF0FF3004B0BDE80B
:1058B000F087236843F0200323607827334884F877
:1058C0004570236831681F0651F8045B02D45F06F7
:1058D00048BFADB23160D90744BF43F02003236015
:1058E0001DB11023ADE72848E9E7236823F0200322
:1058F0002360F6E70A23A4E71646BBE7336825686A
:10590000181D616930602E061B6801D5196002E020
:105910006806FBD51980002316462361BAE7336871
:1059200000211A1D32601E686268304600F05EF980
:1059300008B1801B606063682361002384F84330F2
:10594000A8E73246494640462369D0470130ABD0EC
:1059500023689B0713D4E068039B9842B8BF18469E
:10596000A4E70123324649464046D04701309BD048
:105970000135E36803995B1AAB42F2DCEBE70025E3
:1059800004F11906F5E700BF66800008778000087B
:105990000CB430B5184B0C1E1D689DB008DA8B2373
:1059A0004FF0FF302B601DB0BDE8304002B07047B3
:1059B0004FF40273ADF814304FF000031B930CBF8B
:1059C000234604F1FF33049307934FF6FF730290CD
:1059D0000690ADF81630284621AB209A02A9019313
:1059E00000F0F0FF431CBCBF8B232B60002CDAD0EF
:1059F0000022029B1A70D6E754010020002310B544
:105A00000446C0E90033C0E9043383608181436602
:105A1000C2818361194608225C3000F0B3F80D4B57
:105A2000246263620C4BA3620C4BE3620C4B236356
:105A30000C4B9C4206D003F16802944202D0D03352
:105A40009C4205D104F15800BDE8104000F0C6B8F2
:105A500010BD00BF7D7500089F750008D775000850
:105A6000FD75000890080020024A0349034800F031
:105A70006BB800BF480100200D6E000858010020DF
:105A800041680C4B10B59942044601D001F0BEF9B3
:105A9000A168094B994202D0204601F0B7F9E168AC
:105AA000064B994204D02046BDE8104001F0AEB943
:105AB00010BD00BF90080020F808002060090020F9
:105AC0000C4B0D4A10B504211A600C480022FFF758
:105AD00095FF0A4B01221C46092103F16800FFF7DC
